:1000000026C0B3C23DC03CC03BC03BC039C038C0B5
:1000100037C036C035C034C033C090C131C030C0E5
:100020002FC02EC02DC07E306D79335B5F707F7323
:1000300026007D1F0D3D6F477B17303C570E551531
:100040001D67F3055B0F1C1C5C373B6D32001124F0
:100050001FBECFEDCDBF10E0A0E6B0E0EAE3F6E0D2
:1000600002C005900D92AA36B107D9F710E0AAE6B2
:10007000B0E001C01D92AD37B107E1F7ABD0DBC2F4
:10008000BFCF1F920F920FB60F9211248F939F93A1
:1000900086E292E09DBD8CBD8091760090917700C4
:1000A000019690937700809376009F918F910F90A7
:1000B0000FBE0F901F901895982F80FF02C0919A45
:1000C00001C0919891FF02C0C69A01C0C69892FFE4
:1000D00002C0C39A01C0C39893FF02C0C09A01C076
:1000E000C09894FF02C0C29A01C0C29895FF02C096
:1000F000C49A01C0C49896FF02C0C59A01C0C598B1
:1001000087FF02C0969A0895969808951F93182F16
:10011000C19A909A949AC79A6A3030F4E62FF0E028
:10012000EA5DFF4FE49109C0862F81568A3138F489
:10013000E62FF0E0EF52F040E4918E2F03C06032E2
:1001400011F480E0B9DF112311F4C1980BC0113014
:1001500011F4909807C0123011F4949803C0133032
:1001600009F4C7981F9108951092730010927200BD
:10017000109277001092760010927C0089E063E67E
:10018000C5DF85B7806785BF80E48BBF789488958D
:100190000895E82F8A3050F4F0E0EA5DFF4FE491D3
:1001A000F0E020E030E080E090E00CC081568A3141
:1001B00010F080E00895F0E0EF52F040E491F0CFCD
:1001C000F595E795E0FD01962F5F3F4F283031050B
:1001D000B9F708958FEF87BB81BB1ABA8FE08BBB4D
:1001E0001BBE8A98929A22E020BF23BF8FE386BF6E
:1001F00089B7816089BF86E292E09DBD8CBD2FBD2D
:100200008EB581608EBD89B7806889BF78948FEF85
:100210009FEF90937A00809379001092770010926C
:10022000760081E080937C0010927300109272003F
:1002300041E051E020E031E082991FC04130E9F413
:1002400010926B0010926C0010926D0010926E0074
:1002500010927A001092790002C0829906C08091B3
:10026000790090917A000A97C4F380917900909177
:100270007A000A970CF040E020E0829B1FC04423E4
:10028000F9F410926B0010926C0010926D001092B5
:100290006E0010927A001092790002C0829B06C014
:1002A0008091790090917A000A97C4F38091790047
:1002B00090917A000A97CCF141E002C04423A9F161
:1002C000552361F019C080917200909173001092D3
:1002D00073001092720021E030E02EC0222361F4FE
:1002E000313019F421E030E0A7CF1092770010925E
:1002F000760021E031E003C0332309F49DCF8091E3
:10030000760090917700855593400CF495CF10922C
:1003100077001092760080917200909173000196A0
:10032000909373008093720087CF809179009091B1
:100330007A00885E93403CF650E0DECF1F920F9229
:100340000FB60F9211242F933F934F935F936F93A8
:100350007F938F939F93AF93BF93EF93FF9380917E
:10036000790090917A008F5F9F4F49F080917900DA
:1003700090917A00019690937A0080937900809111
:100380007000909171008F5F9F4F89F18091700094
:10039000909171000196909371008093700080910C
:1003A0007000909171008C52914008F11092710090
:1003B0001092700080916F008F5F80936F0020918A
:1003C0006F00E0916800F0916900DF010D9000205E
:1003D000E9F71197AE1BBF0B30E0CD0103968217F2
:1003E000930728F480916F008A1B80936F00C89B4D
:1003F00022C080916B0090916C00A0916D00B09133
:100400006E00805E9349A440B040A0F480916B00E0
:1004100090916C00A0916D00B0916E000196A11DAD
:10042000B11D80936B0090936C00A0936D00B0930E
:100430006E0001C099DEC99B2FC08091720090911F
:100440007300885E934040F5809172009091730034
:100450008436910530F08091720090917300CAD07B
:1004600001C080E280937B008091720090917300C4
:100470000A9730F08091720090917300C0D001C053
:1004800080E28093740080917200909173006AE022
:1004900070E0BDD08093750080917800815080938A
:1004A000780080917800882309F04EC080916A001E
:1004B0008F5F80936A0080916A00833010F0109201
:1004C0006A0080916A00882399F480917B0061DE44
:1004D000882329F4C19A81E080936A0009C0609161
:1004E0007B0080E013DE80917B0053DE80937800F8
:1004F00080916A00813099F4809174004ADE8823EB
:1005000029F4909A82E080936A0009C06091740097
:1005100081E0FCDD809174003CDE80937800809166
:100520006A00823089F48091750033DE882319F4E3
:10053000949A81E007C06091750082E0E7DD8091C8
:10054000750027DE80937800FF91EF91BF91AF9106
:100550009F918F917F916F915F914F913F912F91DB
:100560000F900FBE0F901F9018951F920F920FB60D
:100570000F9211242F933F934F935F936F937F9329
:100580008F939F93AF93BF93EF93FF931BBE1092F4
:100590006B0010926C0010926D0010926E008091B2
:1005A000790090917A0002C08AE013D0829BFCCF40
:1005B000FF91EF91BF91AF919F918F917F916F913B
:1005C0005F914F913F912F910F900FBE0F901F9011
:1005D000189528EB3BE0E22FF32F3197F1F7A89520
:1005E0008A95C9F708958436910510F482E008953C
:1005F00083E0089564E670E00AD0862F089564E6EB
:1006000070E005D06AE070E002D0862F0895AA1B42
:10061000BB1B51E107C0AA1FBB1FA617B70710F0ED
:10062000A61BB70B881F991F5A95A9F7809590951F
:0A063000BC01CD010895F894FFCF3E
:0A063A00202020646967670060005B
:00000001FF
